:03000000020823D0
:0C082300787FE4F6D8FD75814802086A71
:100A9B00012000012200013300014400013200015A
:0A0AAB00410041004100410000003D
:100B4D00758810758921E4F58E758AA0758CA07550
:030B5D008D3022B6
:100B600075981075B48F75B5FD75D21075AC4322AC
:0D0B7F0075D4CF75E10175E24075E30122E8
:100B370075B28375B9807FFF120B8C43B9C0E5B9D5
:050B47005420FF60F9DD
:010B4C002286
:0A0B9700E4F5E675E70275A8922266
:0F0B7000120B4D120B60120B7F120B37020B97FB
:0A0B8C00E4FEEEC39F50030E80F854
:010B9600223C
:040A8000AD07AC060C
:100A8400E4FBFAC3EB9DEA9C500C7F50120B8C0BD9
:060A9400BB00010A80ED29
:010A9A002239
:10000E00C2AF7B007A00793C7D017FFF7E00120635
:04001E00DAD2AF2261
:03000B00020026CA
:10002600C0E0C083C082C0D075D008758A30758C98
:10003600F8D20930231F900000E0D394084010C284
:1000460023E4F0D2A1D29CC299900041F0800690A0
:100056000000E004F0301919781CE6D39404400E31
:10006600C2197600D2A243D21053D2FD8003781C67
:0A00760006D0D0D082D083D0E03253
:1002FB0053D9BF120B70D28ED28CD2AFD2A1D2985F
:10030B00D2A243D201E4F5437F3C7E00120A800562
:10031B0043E543C394FF40F07B007A00793C7D01B9
:10032B007F017E001206DA853C437534FA75355C25
:10033B008543367537FEE4F538753903753A801207
:10034B000A1C75460A75273275D840E4F5F9F5FA9B
:10035B0075FDFF43D96075FEFF754704900042742D
:10036B0032F0A374ECF0A374AAF0A37480F09000A5
:10037B0044E0FF900043E02F2480900046F0120BE6
:10038B002030A10302052B30242BC224900042E025
:10039B00FF7E01900041E0FDEEC39D501074422E94
:1003AB00F582E43400F583E062070E80E6EF70031C
:1003BB0012052CD29C301A08C21A12008643D21096
:1003CB00900041E06428706A900043E0FFB434125F
:1003DB00A3E0B4300DA3E0B430089000417420F0DA
:1003EB008050EFB44116900044E0B4540F90004697
:1003FB00E0B421089000417421F08036900043E076
:10040B006436702E900045E064307026900044E016
:10041B00FFB430028016EFB431028010EFB4320219
:10042B00800AEFB433028004EFB4340690004174B9
:10043B0006F0200903020392C20975FEFFD54003A3
:10044B0075400AD546EC75460A301C05C21C120ACB
:10045B001CD2A37F02120B8C20A321201B29D21BA1
:10046B0030A2FD752AFA752B5C85432C752DFEE4A5
:10047B00F52E752F02F530120BA1800BC21B301D10
:10048B0004D2A38002C2A3AF271527EF707775277D
:10049B003220010312000E30064030A13DAF44154F
:1004AB0044EF703675440AF541E541C39533501E50
:1004BB0074012541F582E43400F583E0FF74422595
:1004CB0041F582E43400F583EFF0054180DB120B3C
:1004DB0020AF321532EF7002C206301E0BC21ED295
:1004EB00A243D210D2AF8002D21E301F0BAF4815E1
:1004FB0048EF7011C21F800D301D06C2A3C21D80B4
:10050B0004D2A3D21D201F0302043DE527C3941977
:10051B005007C2A3C21D02043DD2A3D21D02043D4B
:01052B0022AD
:0C08AF008E158F168D178B188A19891A68
:1008BB00C3E51594205058120AEC7FA0120980EF63
:1008CB004E6002804AE515FF120980EF4E600280F0
:1008DB003EAF16120980EF4E60028033E4F51BE544
:1008EB001BC39517501DAB18AA19A91A851B827526
:1008FB00830012091FFF120980EF4E600280100562
:10090B001B80DC120B077FC8120B8CE4FEFF227ED0
:03091B00FF7FFF5C
:01091E0022B6
:0C06DA008E158F168D178B188A19891A3F
:1006E600C3E51594204003020781120AEC7FA0128D
:1006F6000980EF4E6003020781E515FF120980EFBE
:100706004E60028076AF16120980EF4E6002806B53
:10071600120AEC7FA1120980EF4E6002805DE51798
:1007260064016040E4F51BE51714FFE51BC39F5009
:100736001A1209D5AB18AA19A91A851B8275830046
:10074600EF12095E120AB6051B80DC1209D5AB183A
:10075600E5177C00251AF9EC3519FA90FFFFEF1220
:10076600095E800D1209D5AB18AA19A91AEF12094C
:0F0776004C120AD1120B07E4FEFF227EFF7FFF19
:010785002251
:100980008F25E4FFE52520E704C2868002D286E4B5
:10099000FD0DBD50FCD287E4FD0DBDA0FCC287E576
:1009A0002525E0F5250FBF08DBE4FD0DBD50FCD289
:1009B00086E4FD0DBD50FCD287E4FD0DBD50FC204A
:1009C0008606C287E4FEFF22E4FD0DBD50FCC2870F
:0409D0007EFF7FFF28
:0109D4002200
:1009D500D286E4FFC287E4FE0EBE50FCD287308685
:1009E5000543260180035326FEE4FE0EBE50FCE5BA
:1009F5002625E0F5260FBF07DBC287E4FE0EBE50B5
:100A0500FCD28730860543260180035326FEE4FE8B
:060A15000EBE50FCAF26EE
:010A1B0022B8
:100AB600C287E4FF0FBF50FCC286E4FF0FBF50FCA5
:0A0AC600D287E4FF0FBFA0FCC28737
:010AD0002203
:100AD100C287E4FF0FBF50FCD286E4FF0FBF50FC7A
:0A0AE100D287E4FF0FBFA0FCC2871C
:010AEB0022E8
:100AEC00D286E4FF0FBF50FCD287E4FF0FBFA0FCFF
:0A0AFC00C286E4FF0FBFA0FCC28712
:010B060022CC
:100B0700C286E4FF0FBF50FCD287E4FF0FBFA0FCF3
:080B1700D286E4FF0FBFA0FC31
:010B1F0022B3
:0300230002061FB3
:10061F00C0E0C0F0C083C082C0D075D000C000C0A1
:10062F0001C002C003C004C005C006C0073098490E
:10063F00C298202313E599B4020ED22375280075B2
:10064F0029429000417428F0302360852982852843
:10065F0083E599F0900041E024FFFFE434FFFEEFC3
:10066F00B5290CEEB52808D224C29CC223803C05C4
:10067F0029E52970020528803230992FC2997442DA
:10068F002547F582E43400FEC3E5299582E5289ECF
:10069F0050120529E52970020528F582852883E087
:1006AF00F5998007120003D2A1D29C900000E4F0CC
:1006BF00D007D006D005D004D003D002D001D0008F
:0B06CF00D0D0D082D083D0F0D0E03239
:03008300020786EB
:10078600C0E0C0F0C083C082C0D075D000C000C039
:1007960001C002C003C004C005C006C007E5D230D0
:1007A600E03553D2FE201916E5D364FA600BE5D383
:1007B60064F56005E5D3B4FC05D21975422A3019F3
:1007C6003BA842A6D37431B54209D21A53D2EFC21E
:1007D60019802905428025E5D230E12053D2FDE576
:1007E60045C3943B50090545A845E6F5D3800D124F
:1007F6000003D2A243D210754806D21F781C760099
:10080600C21ED007D006D005D004D003D002D00136
:0D081600D000D0D0D082D083D0F0D0E0321E
:06000300E4FF0FBF0AFC40
:0100090022D4
:100A1C00754534A845E6FF64FA600AEF64F5600595
:100A2C00EF64FC701F53D2EFC2A2E4FFFE74342EAD
:100A3C00F8E62FFF0EBE07F56307FFEF04F53BA8A2
:040A4C0045E6F5D3B3
:010A50002283
:090BA10074062546F546D21C221B
:100B2000752800752942852982852883E0B432061C
:070B3000C29CC2A1F599224D
:090BAA0074062540F540D2252215
:10008600E4F511F510742A2510F8E62511F5110589
:1000960010E510B408EFE51160030202FA75480690
:1000A600D21FE52A64FA6003020228E52B645C602D
:1000B60003020228E52C65436003020228852D1100
:1000C600E5112446700302019B24DD70030201FC46
:1000D6001470030201D91470030201C124E56050B3
:1000E60024FE70030201B31470030201B7240260F8
:1000F600030202FA7537F9E52F7004E52E601CE558
:100106002EFE7C00E4252FFFEC3EFE7B007A007974
:100116003C7D011206DA853C3A8003753A5C852AF5
:1001260034852B35852C36852E38852F390202F7F6
:10013600752DF9120BA185303CE52EFE7C00E425D9
:100146002FFFEC3EFE7B007A00793C7D011208AF62
:10015600E52EFE7C00E4252FFFEC3EFE7B007A00B8
:10016600792A7D011206DAEF4E70E5E52EFE7C0057
:10017600E4252FFFEC3EFE7B007A00793C7D0112E0
:1001860006DA853C307534FA852B35852C36852E76
:1001960038852F3922852A34852B35852C36852EB0
:1001A6003885303A7537FE7539020202F743EF108B
:1001B60022E52F6003D20122C20122852A34852B33
:1001C60035852C36852E38852F3985303A7537DEBC
:1001D6000202F77534FC7B007A0079358B128A139C
:1001E6008914E52EFE7C00E4252FFFEC3EFE7D06FD
:1001F6001206DA0202F7D202E52EFE7C00E4252F73
:10020600FFEC3E900082F0A3EFF0852A34852B3573
:10021600852C36852E38852F3985303A7537DC02A0
:1002260002F7E52A64F570030202FAE52A64FC6027
:10023600030202FA2002030202FAF5127513007590
:10024600142B900082E0FEA3E0FFF510E510C454E5
:100256000FC454F0FDC3E5109D2405F511C3941099
:10026600500AAB12AA13A9147D068059E51124F190
:10027600F510C374069510F511900082E0FEA3E018
:10028600FFAB12AA13A914AD111208AF900082E0B9
:10029600FEA3E0FF7B007A00792A7D011206DAEFE1
:1002A6004E70E9E511FD7C00900083E02DFF900083
:1002B60082E03CFEED2514F514EC3513F513AB1274
:1002C600FAA914AD101208AF7534FA75355C85437A
:1002D600367537DC900082E0FCA3E0FDECF538AF24
:1002E600058F39E4F53AE02406F0900082E0340008
:0402F600F0120BA156
:0102FA0022E1
:10052C00900043E0FFB4340EA3E0B43009A3E064C0
:10053C0030700302061EEF64417027900044E0FF08
:10054C00B4541F900046E0B42118EF6430700302DD
:10055C00061E900044E0FF6431700302061EEF6437
:10056C003222900043E06436600302061E90004580
:10057C00E06430600302061EA3E06403600302061D
:10058C001E900044E0FFB4301A900002E064366024
:10059C000302061EA3E064307078A3E0643070722E
:1005AC00C20622EFB43117900002E064367063A3E8
:1005BC00E06431705DA3E064307057C20622900095
:1005CC0044E0FFB43217900002E064367044A3E0BC
:1005DC006432703EA3E064307038C20622EFB4334C
:1005EC0017900002E064367029A3E064337023A3F3
:1005FC00E06430701DC20622900044E0B4341390C5
:10060C000002E0B4360CA3E0B43407A3E0B430022B
:03061C00C20622F1
:01000A0022D3
:100A510075440A753202D206E4F54174422541F526
:100A610082E43400F583E0FF74012541F582E4342A
:0F0A710000F583EFF00541E541B407DF020BAA62
:10082F000202FBE493A3F8E493A34003F68001F2E2
:10083F0008DFF48029E493A3F85407240CC8C333CA
:10084F00C4540F4420C8834004F456800146F6DF99
:10085F00E4800B0102040810204080900A9BE47E84
:10086F00019360BCA3FF543F30E509541FFEE4938E
:10087F00A360010ECF54C025E060A840B8E493A355
:10088F00FAE493A3F8E493A3C8C582C8CAC583CA80
:10089F00F0A3C8C582C8CAC583CADFE9DEE780BE38
:010AB5000040
:10091F00BB010CE58229F582E5833AF583E022508D
:10092F0006E92582F8E622BBFE06E92582F8E222D7
:0D093F00E58229F582E5833AF583E49322F1
:10094C00BB010689828A83F0225002F722BBFE018A
:02095C00F32284
:10095E00F8BB010DE58229F582E5833AF583E8F0CF
:10096E00225006E92582C8F622BBFE05E92582C87B
:02097E00F22263
:00000001FF
