:03000000020847AC
:1008470053D9BF43FF8043EF02787FE4F6D8FD75A5
:05085700816102089719
:100B98000120000123000136000148000135000151
:100BA80044004102870041001A00410381014104C9
:080BB8003100012200012600BA
:100C9A00758810758921758AA0758CA0758E017565
:030CAA008D642234
:100CAD0075981075B48F75B5FD75D21075AC43225E
:0D0CCC0075D4CF75E10175E24075E301229A
:100C840075B28375B9807FFF120CE643B9C0E5B92C
:050C94005420FF60F98F
:010C99002238
:0A0CF100E4F5E675E70275A892220B
:0F0CBD00120C9A120CAD120CCC120C84020CF11A
:0A0CE600E4FEEEC39F50030E80F8F9
:010CF00022E1
:040BE500AD07AC06A6
:100BE900E4FBFAC3EB9DEA9C500C7F50120CE60B18
:060BF900BB00010A80EDC3
:010BFF0022D3
:10000E00C2AF7B007A00793F7D017FFF7E00120632
:04001E005BD2AF22E0
:03000B00020A37AF
:100A3700C0E0C0F0C083C082C0D075D008758A18E6
:100A4700758CF4D209900018E004F0900020E0FCC7
:100A5700A3E0FDA3E0FEA3E02401FFE43EFEE43DA6
:100A6700FDE43CFC90002012080A3021197810E6BA
:100A7700D39404400EC2217600D2A243D21053D29F
:100A8700FD8003781006D0D0D082D083D0F0D0E09C
:010A9700322C
:0D0CD9008F4BE4900003F090001E04F02209
:0A09D100A3F07B017A0279CD7D06C8
:0809DB008B518A5289538D549F
:1009E30074FFF555F556E4FDFCC3ED9554EC940006
:1009F300503DAB51AA52A9538D828C831207A96231
:100A030056E4FBFA855682E555C313F555E55613AF
:100A1300F556E58230E0066356016355A00BBB0033
:100A2300010AEB64084A70DC0DBD00010C80BAAE0C
:030A330055AF5666
:010A3600229D
:100BC100E4FDFCED25E0FFEC33FE74872FF5827424
:100BD100033EF583E4F0A3F00DBD00010CED645676
:030BE1004C70E075
:010BE40022EE
:1008DC0090023EE09002CDF0A37403F0E49002D1BC
:1008EC00F0A304F0E53424F9600F146019146023AC
:1008FC0014602D240470368034EF2458FDE4340247
:10090C00FC7534088032EF24BCFDE43402FC7534F1
:10091C00098025EF2420FDE43403FC75340A80188B
:10092C00EF24B0FDE43404FC753406800BEF24F4A2
:10093C00FDE43401FC7534079002CFECF0ED1209A4
:10094C00D1AC06AD079002D3ECF0A3EFF07F070219
:02095C000CD9B4
:1000260090023EE09002CDF0A37410F0E53424FD7A
:10003600601614601F14602924037032EF2464FDD7
:10004600E433FC7534038021EF24C8FDE433FC75EA
:100056003404801EEF242CFDE43401FC7534058045
:1000660011EF2490FDE43401FC8546348004854676
:0A00760034229002CFECF0A3EDF06D
:01008000225D
:1000860053D9BF120CBD120BC1D28ED28CD2AFD2B5
:10009600A1D298D2A243D201D216E4F5477F3C7E84
:1000A60000120BE50547E547C394FF40F07B007A55
:1000B60000793F7D017F017E0012065B853F477B0D
:1000C600007A00793F7D037F507E0312065B900223
:1000D6003EE53FF0900017E540F0900019E541F04D
:1000E600E540B4FF04D2158002C2157537FA75389B
:1000F600B8854739753AFE753BEF753C10753D80FE
:10010600120B34754A0A75293275D840E4F5F9F5AB
:10011600FA75FDFF75FEFF754B0743D9602015483C
:1001260090023EE09002CDF0A37406F0E4A3F0A3A3
:10013600F0A37481F0740F1209D19002CBEEF0A3F4
:10014600EFF09002CBE0FEA3E09002D3F0EEA3F036
:10015600120C5130A1FD753FFF7B007A00793F7D7F
:10016600017F517E0312095EE490001FF09001A703
:1001760004F0900018E0C39406401F302B0DD22CDB
:10018600E4900003F0C22BC29C800AC22C900003AC
:100196007401F0D29CE4900018F0302C63C22C90CD
:1001A6000432E0FD24CCF582E43402F583E0FE74EB
:1001B600CB2DF582E43402F583E0FDEDFF9002CB12
:1001C600EEF0A3EFF07B017A0279CD900432E024C1
:1001D600FEFD1209DB9002CBE0B50624A3E0B507CD
:1001E6001F900432E024FBFF9002CFE0FEB5070625
:1001F600EE20E002D29C90002012081600000000BB
:10020600900003E0B4010F90001EE0B40108E490F2
:100216000003F0120C51302208C22212031543D2F9
:1002260010200903020178C20975FEFFD543037544
:10023600430AD54AEC754A0A302405C224120B3407
:10024600D2A37F02120CE620A321202329D2233039
:10025600A2FD7537FA7538B8854739753AFEE4F563
:100266003B753C01F53D120CFB800BC22330250487
:10027600D2A38002C2A3AF291529EF707775293260
:1002860020010312000E30064030A13DAF4815484C
:10029600EF703675480AF544E544C39536501E742A
:1002A600472544F582E43402F583E0FF74CD254406
:1002B600F582E43402F583EFF0054480DB120C513D
:1002C600AF351535EF7002C20630260BC226D2A214
:1002D60043D210D2AF8002D22630270BAF4C154C3A
:1002E600EF7011C227800D302506C2A3C2258004F7
:1002F600D2A3D225202703020227E529C394195049
:0F03060007C2A3C225020227D2A3D225020227D3
:0C095E008E5B8F5C8D5D8B5E8A5F896014
:10096A00C3E55B9420505B120C367FA0120A98EF05
:10097A004E60028015E55BFF120A98EF4E60028016
:10098A0009AF5C120A98EF4E6005120C6B8033E4D3
:10099A00F561E561C3955D501DAB5EAA5FA96085EF
:1009AA0061827583001207A9FF120A98EF4E60024E
:1009BA008010056180DC120C6B7FC8120CE6E4FE25
:0609CA00FF227EFF7FFF0B
:0109D0002204
:0C065B008E5B8F5C8D5D8B5E8A5F89601A
:10066700C3E55B94204003020704120C367FA012F7
:100677000A98EF4E60028023E55BFF120A98EF4E5F
:1006870060028017AF5C120A98EF4E6002800C126E
:100697000C367FA1120A98EF4E6005120C6B805D35
:1006A700E55D64016040E4F561E55D14FFE561C364
:1006B7009F501A120AEDAB5EAA5FA9608561827529
:1006C7008300EF1207E8120C00056180DC120AEDC7
:1006D700AB5EE55D7C002560F9EC355FFA90FFFFC6
:1006E700EF1207E8800D120AEDAB5EAA5FA960EF73
:1006F7001207D6120C1B120C6BE4FEFF227EFF7F43
:01070700FFF2
:0107080022CE
:100A98008F27E4FFE52720E704C2868002D286E498
:100AA800FD0DBD50FCD287E4FD0DBDA0FCC287E55D
:100AB8002725E0F5270FBF08DBE4FD0DBD50FCD26C
:100AC80086E4FD0DBD50FCD287E4FD0DBD50FC2031
:100AD8008606C287E4FEFF22E4FD0DBD50FCC287F6
:040AE8007EFF7FFF0F
:010AEC0022E7
:100AED00D286E4FFC287E4FE0EBE50FCD28730866C
:100AFD000543280180035328FEE4FE0EBE50FCE59D
:100B0D002825E0F5280FBF07DBC287E4FE0EBE5097
:100B1D00FCD28730860543280180035328FEE4FE6E
:060B2D000EBE50FCAF28D3
:010B3300229F
:100C0000C287E4FF0FBF50FCC286E4FF0FBF50FC59
:0A0C1000D287E4FF0FBFA0FCC287EB
:010C1A0022B7
:100C1B00C287E4FF0FBF50FCD286E4FF0FBF50FC2E
:0A0C2B00D287E4FF0FBFA0FCC287D0
:010C3500229C
:100C3600D286E4FF0FBF50FCD287E4FF0FBFA0FCB3
:0A0C4600C286E4FF0FBFA0FCC287C6
:010C50002281
:100C6B00C286E4FF0FBF50FCD287E4FF0FBFA0FC8E
:080C7B00D286E4FF0FBFA0FCCC
:010C8300224E
:0300230002058152
:10058100C0E0C0F0C083C082C0D075D000C000C040
:1005910001C002C003C004C005C006C00730985D99
:1005A100C298900018E4F0202B1A90023EE0B59911
:1005B10013D22B752A02752BCD900432E4F09002F0
:1005C100877428F0302B73852B82852A83E599F077
:1005D100900432E004F0900287E024CCF582E43408
:1005E10002FEE582B52B0CEEB52A08D22CC29CC2C4
:1005F1002B8047052BE52B7002052A803D30993A67
:10060100C299900018E4F074CD254BF582E43402D0
:10061100FEC3E52B9582E52A9E5016052BE52B702E
:1006210002052AF582852A83E0A2D0929BF5998062
:1006310009120003D2A1D29CC22B90001AE4F0D07F
:1006410007D006D005D004D003D002D001D000D00D
:0A065100D0D082D083D0F0D0E03288
:0300830002070968
:10070900C0E0C0F0C083C082C0D075D000C000C0B6
:0D07190001C002C003C004C005C006C00737
:10072600E5D230E03853D27EAFD3202112EF64FAFF
:100736006008EF64F56003BFFC05D22175452C30D7
:100746002114A845A6077433B54509D22253D2EF22
:10075600C22180020545E5D220E0CA8025E5D230D7
:10076600E12053D2FDE549C3943E50090549A84905
:10077600E6F5D3800D120003D2A243D210754C06C3
:08078600D22778107600C2268C
:10078E00D007D006D005D004D003D002D001D000BF
:0B079E00D0D0D082D083D0F0D0E03269
:06000300E4FF0FBF0AFC40
:0100090022D4
:100B3400754937A849E6FF64FA600AEF64F5600571
:100B4400EF64FC701F53D2EFC2A2E4FFFE74372E91
:100B5400F8E62FFF0EBE07F56307FFEF04F53EA886
:040B640049E6F5D396
:010B6800226A
:090CFB007406254AF54AD22422B0
:100C5100752A02752BCDC29CC298C2A1852B8285B3
:090C61002A83E0A2D0929BF599D0
:010C6A002267
:090D040074062543F543D22D22AB
:10031500E4F552F551742C2551F8E62552F55205B0
:1003250051E551B408EFE5526003020580754C06AE
:10033500D227E52C64FA60030204A9E52E6547601F
:1003450003020580E52D64B86003020580852F5200
:10035500E5522446700302041C24DD700302047D6B
:1003650014700302045A14700302044224E5604326
:1003750024FE70030204341470030204382402605E
:1003850003020580753AF9E5317004E530601CE536
:1003950030FE7C00E42531FFEC3EFE7B007A0079DF
:1003A5003F7D0112065B853F3D8003753DB8852C79
:1003B500378055753AF985323FE530FE7C00E425F6
:1003C50031FFEC3EFE7B007A00793F7D0112095E2C
:1003D500E530FE7C00E42531FFEC3EFE7B007A0033
:1003E500792C7D0112065BEF4E70E5E530FE7C0051
:1003F500E42531FFEC3EFE7B007A00793F7D01125A
:10040500065B853F3D7537FA852D38852E39853054
:100415003B85313C02057D852C37852D38852E3968
:10042500753BF085323D753AFE753C0102057D430D
:10043500EF1022E5316003D20122C20122852C375B
:10044500852D38852E3985303B85313C85323D7586
:100455003ADE02057D7537FC7B007A0079388B56CC
:100465008A578958E530FE7C00E42531FFEC3EFED5
:100475007D0612065B02057DD202E530FE7C00E4B6
:100485002531FFEC3E900385F0A3EFF0852C3785F1
:100495002D38852E3985303B85313C85323D753A81
:1004A500DC02057DE52CB4F509E52F64FE70030239
:1004B5000580E52C64FC600302058020020302052B
:1004C50080F55675570075582D900385E0FEA3E01D
:1004D500FFF551E551C4540FC454F0FDC3E5519DDA
:1004E5002405F552C39410500AAB56AA57A9587D56
:1004F500068059E55224F1F551C374069551F5521C
:10050500900385E0FEA3E0FFAB56AA57A958AD526C
:1005150012095E900385E0FEA3E0FF7B007A007977
:100525002C7D0112065BEF4E70E9E552FD7C0090D3
:100535000386E02DFF900385E03CFEED2558F55838
:10054500EC3557F557AB56FAA958AD5112095E75FA
:1005550037FA7538B8854739753ADC900385E0FC7C
:10056500A3E0FDECF53BAF058F3CE4F53DE024064B
:0B057500F0900385E03400F0120CFB56
:010580002258
:100B690075480A753502D206E4F54474CD2544F575
:100B790082E43402F583E0FF74472544F582E434C6
:0F0B890002F583EFF00544E544B407DF020D04E5
:10085C00020086E493A3F8E493A34003F68001F22C
:10086C0008DFF48029E493A3F85407240CC8C3339D
:10087C00C4540F4420C8834004F456800146F6DF6C
:10088C00E4800B0102040810204080900B98E47E59
:10089C00019360BCA3FF543F30E509541FFEE49361
:1008AC00A360010ECF54C025E060A840B8E493A328
:1008BC00FAE493A3F8E493A3C8C582C8CAC583CA53
:1008CC00F0A3C8C582C8CAC583CADFE9DEE780BE0B
:010BC0000034
:1007A900BB010CE58229F582E5833AF583E0225005
:1007B90006E92582F8E622BBFE06E92582F8E2224F
:0D07C900E58229F582E5833AF583E4932269
:1007D600BB010689828A83F0225002F722BBFE0102
:0207E600F322FC
:1007E800F8BB010DE58229F582E5833AF583E8F047
:1007F800225006E92582C8F622BBFE05E92582C8F3
:02080800F222DA
:0C080A00ECF0A3EDF0A3EEF0A3EFF02261
:10081600A8828583F0D083D08212082D12082D126B
:10082600082D12082DE473E493A3C583C5F0C58390
:10083600C8C582C8F0A3C583C5F0C583C8C582C82C
:01084600228F
:00000001FF
