:0300000002155B8B
:10155B0053D9BF43FF8043EF02787FE4F6D8FD7584
:05156B00816B0215ABCD
:100D640000C1814001C0804101C0804100C1814077
:100D740001C0804100C1814000C1814001C0804167
:100D840001C0804100C1814000C1814001C0804157
:100D940000C1814001C0804101C0804100C1814047
:100DA40001C0804100C1814000C1814001C0804137
:100DB40000C1814001C0804101C0804100C1814027
:100DC40000C1814001C0804101C0804100C1814017
:100DD40001C0804100C1814000C1814001C0804107
:100DE40001C0804100C1814000C1814001C08041F7
:100DF40000C1814001C0804101C0804100C18140E7
:100E040000C1814001C0804101C0804100C18140D6
:100E140001C0804100C1814000C1814001C08041C6
:100E240000C1814001C0804101C0804100C18140B6
:100E340001C0804100C1814000C1814001C08041A6
:100E440001C0804100C1814000C1814001C0804196
:100E540000C1814001C0804101C0804100C1814086
:100E640000C0C101C30302C2C60607C705C5C40446
:100E7400CC0C0DCD0FCFCE0E0ACACB0BC90908C8B6
:100E8400D81819D91BDBDA1A1EDEDF1FDD1D1CDCA6
:100E940014D4D515D71716D6D21213D311D1D01016
:100EA400F03031F133F3F23236F6F737F53534F406
:100EB4003CFCFD3DFF3F3EFEFA3A3BFB39F9F83876
:100EC40028E8E929EB2B2AEAEE2E2FEF2DEDEC2C66
:100ED400E42425E527E7E62622E2E323E12120E0D6
:100EE400A06061A163A3A26266A6A767A56564A4C6
:100EF4006CACAD6DAF6F6EAEAA6A6BAB69A9A86836
:100F040078B8B979BB7B7ABABE7E7FBF7DBDBC7C25
:100F1400B47475B577B7B67672B2B373B17170B095
:100F24005090915193535292965657975595945485
:100F34009C5C5D9D5F9F9E5E5A9A9B5B99595898F5
:100F4400884849894B8B8A4A4E8E8F4F8D4D4C8CE5
:100F54004484854587474686824243834181804055
:1017EA00012000012500013900014B0001380001E8
:1017FA0047004103C3004100960041059D000124B2
:0F180A000041053D014105990001220001230025
:10191A00758810758921758AA0758CA0758E0175D8
:03192A008D6422A7
:10192D0075989075B48F75B5FD75D21075AC432251
:0D194C0075D4CF75E10175E24075E301220D
:1019040075B28375B9807FFF12195943B9C0E5B91F
:051914005420FF60F902
:0119190022AB
:0A196400E4F5E675E70275A892228B
:0F193D0012191A12192D12194C121904021964D9
:0A195900E4FEEEC39F50030E80F879
:011963002261
:04186500AD07AC0619
:10186900E4FBFAC3EB9DEA9C500C7F501219590B0B
:06187900BB00010A80ED36
:01187F002246
:10000E00C2AF7B007A0079427D017FFF7E00121421
:04001E000DD2AF222E
:03000B0002166377
:10166300C0E0C0F0C083C082C0D075D008758A18AE
:10167300758CF4D209900014E004F090015CE0FC56
:10168300A3E0FDA3E0FEA3E02401FFE43EFEE43D6E
:10169300FDE43CFC90015C1211B63031197810E680
:1016A300D39404400EC2317600D2A243D21053D257
:1016B300FD8003781006D0D0D082D083D0F0D0E064
:0116C30032F4
:0F1849008E668F67900491EFF0E566A3F07F093C
:0D1858008F4EE4900003F090015A04F0223E
:0F1724001210EE900490F07B017A0479897D0811
:081733008B688A69896A8D6BDD
:10173B007DFF7FFFAE6B156BEE6023AB68056AE533
:10174B006AAA697002056914F91210D56DFB7A004B
:10175B00900D64936FFDEB900E6493FF80D6EFFEBC
:02176B00EDFF90
:01176D002259
:1016C400E4FDFCED25E0FFEC33FE74432FF582745A
:1016D400033EF583E4F0A3F0747D2FF58274023E9B
:1016E400F583E4F0A3F074632FF58274013EF5836F
:1016F400E4F0A3F074162FF58274003EF583E4F051
:10170400A37414F074C72FF58274033EF583E4F0D8
:0F171400A37419F00DBD00010CED64404C70A4DE
:0117230022A3
:041219008E568F5707
:10121D00D3E5579440E55694004003021332ED9404
:10122D00FC4003021332ED700302133290027AE098
:10123D00900489F0E53724F9601014603A14606168
:10124D00240360030212DB0212DB90048A7402F0A5
:10125D00AE56AF577C007D9812114FEF2408FBE47A
:10126D003EFA90059AF0A3EBF0E490048DF0A37490
:10127D0008F0F53702130490048A7404F0AE56AFEB
:10128D00577C007D9C12114FAA06AB0790059AEA78
:10129D00F0A3EBF0E490048DF0A304F07537098012
:1012AD005690048A7402F0AE56AF577C007D9812AA
:1012BD00114FEF2410FBE43EFA90059AF0A3EBF0EA
:1012CD00E490048DF0A37408F0753706802990041E
:1012DD008A7402F0AE56AF577C007D9812114FAA5A
:1012ED0006AB0790059AEAF0A3EBF0E490048DF0BD
:1012FD00A37408F075370790048BEAF0A3EBF09018
:10130D00059AEAF0A3EBF07B017A0479897D061248
:10131D001733AA06AB07900490EAF090048FEFF014
:05132D007F07121858B3
:011332002298
:080F64008F568B578A588959FA
:100F6C00E556D394405005ED94FC4003C22022ED8D
:100F7C007003C2202290027AE0900489F0E53724B5
:100F8C00FD605314700302101E14700302108A24A7
:100F9C000360030210D190048A740FF0E55675F0CB
:100FAC0098A485F066F567AB57AA58A9591210D5C5
:100FBC00FD7002C220E56690048BF0A3E567F0E4B7
:100FCC00A3F0A37408F0A37401F0A3ED12172A1276
:100FDC0018497537032290048A740FF0E55675F0A2
:100FEC0098A4AEF02408F567E43EF566A3F0A3E5FB
:100FFC0067F0E4A3F0A37408F0A37401F0AB57AA54
:10100C0058A959F58275830012172412184975379F
:10101C00042290048A7406F0E55675F09CA485F0C1
:10102C0066F567E566A3F0A3E567F0AB57AA58A988
:10103C00599000021210EEFF7E00D39414EE94002F
:10104C007C00400A7D3212114F43060880057D64F6
:10105C0012114F90048EEFF090048DEEF07B017A1C
:10106C000479897D061217338E668F6790048FEF93
:10107C00F0E566A3F07F0712185875370522C220D9
:10108C0090048A740FF0E55675F098A4AEF0241015
:10109C00F567E43EF566A3F0A3E567F0E4A3F0A3DF
:1010AC007408F0A37401F0AB57AA58A95990000327
:1010BC001217248E668F67900491EFF0E566A3F00B
:0810CC007F0902185875370274
:0110D40022F9
:100B310090048AE064026003020CC690059CE024E4
:100B4100FBFF90048BE06F6003020D63E53724F92E
:100B51007003020C1E147003020C43240260030292
:100B61000D6390048CE0F556E55624FD6036146063
:100B71005B147003020BF514607C2405707A9005F8
:100B81009AE0FEA3E0FF7C007D98121161EF25E061
:100B9100FFEE33FE74632FF58274013EF583E4F0BA
:100BA100A3F0807990059AE0FEA3E0FF7C007D9898
:100BB100121161EF25E0FFEE33FE74632FF58274AD
:100BC100013EF583E4F0A37403F0805190059AE0AF
:100BD100FEA3E0FF7C007D98121161EF25E0FFEE9E
:100BE10033FE74632FF58274013EF583E4F0A37440
:100BF10002F080298002800090059AE0FEA3E0FFC8
:100C01007C007D98121161EF25E0FFEE33FE7463E5
:100C11002FF58274013EF583E4F0A304F090048C77
:100C2100E0FB90059AE0FEA3E0FF7C007D981211A5
:100C310061EF25E0FFEE33FE74432FF5827403026A
:100C41000D3690048DE0F556E55624FE602A0470B9
:100C51004E90059AE0FEA3E0FF7C007D98121161A1
:100C6100EF25E0FFEE33FE747D2FF58274023EF531
:100C710083E4F0A37403F02290059AE0FEA3E0FF61
:100C81007C007D98121161EF25E0FFEE33FE747D4B
:100C91002FF58274023EF583E4F0A37402F02290F2
:100CA100059AE0FEA3E0FF7C007D98121161EF251B
:100CB100E0FFEE33FE74632FF58274013EF583E4A9
:100CC100F0A304F02290048AE064046003020D633F
:100CD10090059CE024FBFF90048BE06F6003020D04
:100CE10063E5376409707B90048CE0FEA3E0FDEEC0
:100CF100F557EDF558E55720E7445478600D535703
:100D010007AE57AF587C007D328008AE57AF587C94
:100D1100007D64121161EFFB90059AE0FEA3E0FFF4
:100D21007C007D9C121161EF25E0FFEE33FE74160D
:100D31002FF58274003EF583E4F0A3EBF0229005D9
:100D41009AE0FEA3E0FF7C007D9C121161EF25E09B
:100D5100FFEE33FE74162FF58274003EF583E4F046
:020D6100A3F0FD
:010D6300226D
:1008660053D9BF12193D1216C4D28ED28CD2AFD232
:10087600A1D298D2A243D201D216E4F54A7F3C7E99
:1008860000121865054AE54AC394FF40F07B007ADA
:100896000079427D017F017E0012140D85424A7B5C
:1008A600007A0079427D037F357E0212140D900294
:1008B6007AE542F0900013E543F0900015E544F028
:1008C6007B017A0179177D407F007E0412140D901A
:1008D6000013E0B4FF04D2158002C215753AFA750A
:1008E6003BB9854A3C753DFE753EEF753F11754037
:1008F600801217B5754D0A752A3275D840E4F5F998
:10090600F5FA75FDFF75FEFF754E0743D960900138
:100916005BF09001E304F0900014E0C39406401FDE
:10092600303B0DD23CE4900003F0C23BC29C800AEF
:10093600C23C9000037401F0D29CE4900014F030A5
:100946003C53C23C90059CE0FD2488F582E43404C7
:10095600F583E0FE74872DF582E43404F583E0FD2B
:10096600EDFF900487EEF0A3EFF07B017A0479891E
:1009760090059CE024FEFD121733900487E0B5062F
:1009860014A3E0B5070F120B31D29C90015C121133
:10099600C200000000900003E0B4011390015AE089
:1009A600B4010CE4900003F090015AF01218D13013
:1009B6003208C23212008643D21020090302091DF2
:1009C600C20975FEFFD5460375460AD54DEC754D31
:1009D6000A303405C2341217B5D2A37F0212195950
:1009E60020A321203329D23330A2FD753AFA753B74
:1009F600B9854A3C753DFEE4F53E753F01F540126A
:100A0600196E800BC233303504D2A38002C2A3AF65
:100A16002A152AEF6003020B16752A3220010312EB
:100A2600000EA21AB3921A301A78E553702C755339
:100A3600040552E552D3943F4003E4F552E552C310
:100A46009440501674172552F582E43401F583E07C
:100A5600600280060552055080E320200D1553AF35
:100A6600527E007D011212198038301105C21175AF
:100A76003702E53764066017E53764076011E53726
:100A86006408600BE53764096005E537B40A037549
:100A9600370290053EE0FF7B017A0579447D01121D
:100AA6000F6430064030A13DAF4B154BEF703675E5
:100AB6004B0AF547E547C39539501E74032547F59C
:100AC60082E43403F583E0FF74892547F582E43434
:100AD60004F583EFF0054780DB1218D1AF381538DF
:100AE600EF7002C20630360BC236D2A243D210D203
:100AF600AF8002D23630370BAF4F154FEF7011C2B1
:100B060037800D303506C2A3C2358004D2A3D23554
:100B16002037030209C0E52AC394195007C2A3C2AD
:0B0B2600350209C0D2A3D2350209C07D
:0C15F0008E608F618D628B638A64896558
:1015FC00C3E5609420505B1218B67FA0120026EF52
:10160C004E60028015E560FF120026EF4E600280EE
:10161C0009AF61120026EF4E60051218EB8033E41F
:10162C00F566E566C39562501DAB63AA64A9658532
:10163C0066827583001210EEFF120026EF4E6002D8
:10164C008010056680DC1218EB7FC8121959E4FE75
:06165C00FF227EFF7FFF6C
:011662002265
:0C140D008E608F618D628B638A6489653C
:10141900C3E560942040030214B61218B67FA012E7
:101429000026EF4E60028023E560FF120026EF4E92
:1014390060028017AF61120026EF4E6002800C1225
:1014490018B67FA1120026EF4E60051218EB805DD9
:10145900E56264016040E4F566E56214FFE566C390
:101469009F501A12176EAB63AA64A96585668275C7
:101479008300EF12112D121880056680DC12176E99
:10148900AB63E5627C002565F9EC3564FA90FFFFF2
:10149900EF12112D800D12176EAB63AA64A965EFC7
:1014A90012111B12189B1218EBE4FEFF227EFF7F1C
:0114B900FF33
:0114BA00220F
:100026008F28E4FFE52820E704C2868002D286E412
:10003600FD0DBD50FCD287E4FD0DBDA0FCC287E5D9
:100046002825E0F5280FBF08DBE4FD0DBD50FCD2E6
:1000560086E4FD0DBD50FCD287E4FD0DBD50FC20AD
:100066008606C287E4FEFF22E4FD0DBD50FCC28772
:040076007EFF7FFF8B
:01007A002263
:10176E00D286E4FFC287E4FE0EBE50FCD2873086DE
:10177E000543290180035329FEE4FE0EBE50FCE50D
:10178E002925E0F5290FBF07DBC287E4FE0EBE5008
:10179E00FCD28730860543290180035329FEE4FEDF
:0617AE000EBE50FCAF2945
:0117B4002212
:10188000C287E4FF0FBF50FCC286E4FF0FBF50FCCD
:0A189000D287E4FF0FBFA0FCC2875F
:01189A00222B
:10189B00C287E4FF0FBF50FCD286E4FF0FBF50FCA2
:0A18AB00D287E4FF0FBFA0FCC28744
:0118B5002210
:1018B600D286E4FF0FBF50FCD287E4FF0FBFA0FC27
:0A18C600C286E4FF0FBFA0FCC2873A
:0118D00022F5
:1018EB00C286E4FF0FBF50FCD287E4FF0FBFA0FC02
:0818FB00D286E4FF0FBFA0FC40
:0119030022C1
:0300230002133392
:10133300C0E0C0F0C083C082C0D075D000C000C080
:1013430001C002C003C004C005C006C00730985DD9
:10135300C298900014E4F0203B1A90027AE0B59909
:1013630013D23B752D04752E8990059CE4F09003F0
:10137300C37428F0303B73852E82852D83E599F065
:1013830090059CE004F09003C3E02488F582E434E4
:1013930004FEE582B52E0CEEB52D08D23CC29CC2EC
:1013A3003B8047052EE52E7002052D803D30993A8E
:1013B300C299900014E4F07489254EF582E4340454
:1013C300FEC3E52E9582E52D9E5016052EE52E7063
:1013D30002052DF582852D83E0A2D0929BF599809D
:1013E30009120003D2A1D29CC23B900096E4F0D034
:1013F30007D006D005D004D003D002D001D000D04E
:0A140300D0D082D083D0F0D0E032C8
:030083000214BBA9
:1014BB00C0E0C0F0C083C082C0D075D000C000C0F7
:0D14CB0001C002C003C004C005C006C00778
:1014D800E5D230E03853D27EAFD3203112EF64FA30
:1014E8006008EF64F56003BFFC05D23175482F3002
:1014F8003114A848A6077436B54809D23253D2EF3A
:10150800C23180020548E5D220E0CA8025E5D23004
:10151800E12053D2FDE54CC394415009054CA84C39
:10152800E6F5D3800D120003D2A243D210754F0600
:08153800D23778107600C236AC
:10154000D007D006D005D004D003D002D001D000FF
:0B155000D0D0D082D083D0F0D0E032A9
:06000300E4FF0FBF0AFC40
:0100090022D4
:1017B500754C3AA84CE6FF64FA600AEF64F56005DB
:1017C500EF64FC701F53D2EFC2A2E4FFFE743A2E01
:1017D500F8E62FFF0EBE07F56307FFEF04F541A8F6
:0417E5004CE6F5D306
:0117E90022DD
:09196E007406254DF54DD234221A
:1018D100752D04752E89C29CC298C2A1852E828560
:0918E1002D83E0A2D0929BF59941
:0118EA0022DB
:0919770074062546F546D23D2216
:10008600E4F557F556742F2556F8E62557F5570526
:1000960056E556B408EFE5576003020865754F0646
:1000A600D237E52F64FA600302078EE531654A60B0
:1000B600030204C0E53064B960030204C085325708
:1000C600E5571211F3020D8F03FA9C0180BA01E184
:1000D600DD01BEDE01A6DF011CFA00EDFB0198FC86
:1000E600019CFD00000865753DF9E5347004E533B3
:1000F600601CE533FE7C00E42534FFEC3EFE7B000D
:100106007A0079427D0112140D85424080037540C4
:10011600B9852F3A8055753DF9853542E533FE7C24
:1001260000E42534FFEC3EFE7B007A0079427D0137
:100136001215F0E533FE7C00E42534FFEC3EFE7B31
:10014600007A00792F7D0112140DEF4E70E5E5332C
:10015600FE7C00E42534FFEC3EFE7B007A0079420B
:100166007D0112140D854240753AFA85303B853182
:100176003C85333E85343F020862852F3A85303B05
:1001860085313C753EF0853540753DFE753F010273
:10019600086243EF1022E5346003D20122C2012235
:1001A600852F3A85303B85313C85333E85343F8506
:1001B6003540753DDE020862753AFC7B007A0079AF
:1001C6003B8B5B8A5C895DE533FE7C00E42534FF6E
:1001D600EC3EFE7D0612140D020862D202E533FEE5
:1001E6007C00E42534FFEC3E900542F0A3EFF08559
:1001F6002F3A85303B85313C85333E85343F853506
:1002060040753DDC020862302003020865E4F556BD
:1002160074172556F582E43401F583E065316007ED
:100226000556E556B440E9E556C394404003020836
:100236006590053EE556F0852F3A85303B85313C85
:10024600753D9B85333E85343FE5337056900544B6
:10025600F0E55625E02443F582E43403F583E4F023
:10026600A3F0900545F0E55625E0247DF582E434BB
:1002760002F583E4F0A3F0E55625E02463F582E475
:100286003401F583E4F0A3F0900546F0A304F0E50D
:100296005625E024C7F582E43403F583A3E0F53F51
:1002A6000203DF9005447401F0E55625E02443F58A
:1002B60082E43403F583E4F0A304F0E53354F0C498
:1002C600540FF55724FE600F146014240270189022
:1002D60005477405F080169005477404F0800E906B
:1002E60005477403F080069005477402F0E556252D
:1002F600E02463F582E43401F583E4F0A3F0E5330A
:10030600540FF55724FE602214603A240270509070
:1003160005457404F0E55625E0247DF582E43402B3
:10032600F583E4F0A37404F0804E9005457402F062
:10033600E55625E0247DF582E43402F583E4F0A356
:100346007402F080339005457401F0E55625E024EB
:100356007DF582E43402F583E4F0A304F08019907D
:1003660005457405F0E55625E0247DF582E4340262
:10037600F583E4F0A37405F053343FE534D3941EBB
:10038600401B900546741EF0E55625E024C7F5820D
:10039600E43403F583E4F0A3741EF0803CE534C333
:1003A600941090054650187410F0E55625E024C7C1
:1003B600F582E43403F583E4F0A37410F0801AE5C3
:1003C60034F0900549E0FFE55625E024C7F582E4C0
:1003D6003403F583E4F0A3EFF0E55625E02416F5A3
:1003E60082E43400F583A3E0F540E53470030208A7
:1003F600650206BBE4F55674172556F582E434010A
:10040600F583E0654A60070556E556B440E9E556CA
:10041600C394404003020865852F3A85303B8531F9
:100426003C753D9BE55625E02443F582E43403F50F
:1004360083E0FEA3E04E7004F53E8059E55625E0C4
:10044600247DF582E43402F583E0FEA3E0FFEE703E
:100456001FEF14600C14600E1460102403701180DA
:100466000F433E01800D433E028008433E03800356
:10047600E4F53EE55625E02463F582E43401F58390
:10048600A3E0C4F8540FC868FF0582D5820215831D
:100496001582EF423EE55625E024C7F582E4340393
:1004A600F583A3E0F53FE55625E02416F582E4340E
:1004B60000F583A3E0F540020862E53064B8600306
:1004C600020865E532648F60030206C0302003022D
:1004D6000865F55674172556F582E43401F583E070
:1004E600653160070556E556B440E9E556C39440C4
:1004F600400302086590053EE556F0852F3A8530A3
:100506003B85313C753D9B85333E85343FE53370F5
:1005160056900544F0E55625E02443F582E434037D
:10052600F583E4F0A3F0900545F0E55625E0247D3B
:10053600F582E43402F583E4F0A3F0E55625E024E1
:1005460063F582E43401F583E4F0A3F0900546F008
:10055600A304F0E55625E024C7F582E43403F583C9
:10056600A3E0F53F0206A39005447401F0E5562585
:10057600E02443F582E43403F583E4F0A304F0E5D4
:100586003354F0C4540FF55724FE600F146014243E
:100596000270189005477405F0801690054774049C
:1005A600F0800E9005477403F080069005477402AC
:1005B600F0E55625E02463F582E43401F583E4F0A2
:1005C600A3F0E533540FF55724FE602214603A2455
:1005D6000270509005457404F0E55625E0247DF53B
:1005E60082E43402F583E4F0A37404F0804E9005AF
:1005F600457402F0E55625E0247DF582E43402F5E3
:1006060083E4F0A37402F080339005457401F0E5AD
:100616005625E0247DF582E43402F583E4F0A30454
:10062600F080199005457405F0E55625E0247DF522
:1006360082E43402F583E4F0A37405F053347FE5D5
:1006460034D3941E401B900546741EF0E55625E0F3
:1006560024C7F582E43403F583E4F0A3741EF08026
:100666003CE534C3941090054650187410F0E556D6
:1006760025E024C7F582E43403F583E4F0A374107F
:10068600F0801AE534F0900549E0FFE55625E024B0
:10069600C7F582E43403F583E4F0A3EFF0E55625CD
:1006A600E02416F582E43400F583A3E0F540E53452
:1006B6007003020865D211D22022E532649C6003E1
:1006C600020865F55674172556F582E43401F5835C
:1006D600E0653160070556E556B440E9E556C39432
:1006E600404003020865852F3A85303B85313C75CD
:1006F6003D9BE55625E02443F582E43403F583E08B
:10070600FEA3E04E7004F53E8059E55625E0247DB3
:10071600F582E43402F583E0FEA3E0FFEE701FEFFE
:1007260014600C14600E14601024037011800F43C3
:100736003E01800D433E028008433E038003E4F5FC
:100746003EE55625E02463F582E43401F583A3E013
:10075600C4F8540FC868FF0582D582021583158236
:10076600EF423EE55625E024C7F582E43403F583DF
:10077600A3E0F53FE55625E02416F582E43400F5BE
:1007860083A3E0F540020862E52FB4F509E532647B
:10079600FE7003020865E52F64FC6003020865200D
:1007A6000203020865F55B755C00755D30900542D5
:1007B600E0FEA3E0FFF556E556C4540FC454F0FD21
:1007C600C3E5569D2405F557C39410500AAB5BAAA2
:1007D6005CA95D7D068059E55724F1F556C374067C
:1007E6009556F557900542E0FEA3E0FFAB5BAA5C89
:1007F600A95DAD571215F0900542E0FEA3E0FF7B20
:10080600007A00792F7D0112140DEF4E70E9E5573D
:10081600FD7C00900543E02DFF900542E03CFEED97
:10082600255DF55DEC355CF55CAB5BFAA95DAD5617
:100836001215F0753AFA753BB9854A3C753DDC9060
:100846000542E0FCA3E0FDECF53EAF058F3FE4F585
:0F08560040E02406F0900542E03400F012196EE5
:010865002270
:10181A00754B0A753802D206E4F54774892547F5EF
:10182A0082E43404F583E0FF74032547F582E43447
:0F183A0003F583EFF00547E547B407DF021977A1
:10157000020866E493A3F8E493A34003F68001F223
:1015800008DFF48029E493A3F85407240CC8C3337C
:10159000C4540F4420C8834004F456800146F6DF4B
:1015A000E4800B01020408102040809017EAE47EDA
:1015B000019360BCA3FF543F30E509541FFEE49340
:1015C000A360010ECF54C025E060A840B8E493A307
:1015D000FAE493A3F8E493A3C8C582C8CAC583CA32
:1015E000F0A3C8C582C8CAC583CADFE9DEE780BEEA
:0118190000CE
:1010D500BB010689828A83E0225002E722BBFE0219
:0910E500E32289828A83E493224C
:1010EE00BB010CE58229F582E5833AF583E02250B7
:1010FE0006E92582F8E622BBFE06E92582F8E22201
:0D110E00E58229F582E5833AF583E493221A
:10111B00BB010689828A83F0225002F722BBFE01B3
:02112B00F322AD
:10112D00F8BB010DE58229F582E5833AF583E8F0F8
:10113D00225006E92582C8F622BBFE05E92582C8A4
:02114D00F2228C
:10114F00EF8DF0A4A8F0CF8CF0A428CE8DF0A42EB4
:02115F00FE226E
:10116100BC000BBE0029EF8DF084FFADF022E4CC72
:10117100F875F008EF2FFFEE33FEEC33FCEE9DEC3B
:10118100984005FCEE9DFE0FD5F0E9E4CEFD22ED81
:10119100F8F5F0EE8420D21CFEADF075F008EF2FCB
:1011A100FFED33FD4007985006D5F0F222C398FDBC
:0511B1000FD5F0EA2259
:0C11B600ECF0A3EDF0A3EEF0A3EFF022AC
:1011C200A8828583F0D083D0821211D91211D9124C
:1011D20011D91211D9E473E493A3C583C5F0C58371
:1011E200C8C582C8F0A3C583C5F0C583C8C582C877
:0111F20022DA
:1011F300D083D082F8E4937012740193700DA3A38B
:1012030093F8740193F5828883E47374029368609E
:06121300EFA3A3A380DF9E
:00000001FF
