:03000000021529BD
:1015290053D9BF43FF8043EF02787FE4F6D8FD75B6
:05153900816B02157931
:100D320000C1814001C0804101C0804100C18140A9
:100D420001C0804100C1814000C1814001C0804199
:100D520001C0804100C1814000C1814001C0804189
:100D620000C1814001C0804101C0804100C1814079
:100D720001C0804100C1814000C1814001C0804169
:100D820000C1814001C0804101C0804100C1814059
:100D920000C1814001C0804101C0804100C1814049
:100DA20001C0804100C1814000C1814001C0804139
:100DB20001C0804100C1814000C1814001C0804129
:100DC20000C1814001C0804101C0804100C1814019
:100DD20000C1814001C0804101C0804100C1814009
:100DE20001C0804100C1814000C1814001C08041F9
:100DF20000C1814001C0804101C0804100C18140E9
:100E020001C0804100C1814000C1814001C08041D8
:100E120001C0804100C1814000C1814001C08041C8
:100E220000C1814001C0804101C0804100C18140B8
:100E320000C0C101C30302C2C60607C705C5C40478
:100E4200CC0C0DCD0FCFCE0E0ACACB0BC90908C8E8
:100E5200D81819D91BDBDA1A1EDEDF1FDD1D1CDCD8
:100E620014D4D515D71716D6D21213D311D1D01048
:100E7200F03031F133F3F23236F6F737F53534F438
:100E82003CFCFD3DFF3F3EFEFA3A3BFB39F9F838A8
:100E920028E8E929EB2B2AEAEE2E2FEF2DEDEC2C98
:100EA200E42425E527E7E62622E2E323E12120E008
:100EB200A06061A163A3A26266A6A767A56564A4F8
:100EC2006CACAD6DAF6F6EAEAA6A6BAB69A9A86868
:100ED20078B8B979BB7B7ABABE7E7FBF7DBDBC7C58
:100EE200B47475B577B7B67672B2B373B17170B0C8
:100EF20050909151935352929656579755959454B8
:100F02009C5C5D9D5F9F9E5E5A9A9B5B9959589827
:100F1200884849894B8B8A4A4E8E8F4F8D4D4C8C17
:100F22004484854587474686824243834181804087
:1017B800012000012500013900014B00013800011A
:1017C80047004103C3004100960041059D000124E4
:0F17D8000041053D014105990001220001230058
:1018E800758810758921758AA0758CA0758E01750B
:0318F8008D6422DA
:1018FB0075989075B48F75B5FD75D21075AC432284
:0D191A0075D4CF75E10175E24075E301223F
:1018D20075B28375B9807FFF12192743B9C0E5B984
:0518E2005420FF60F935
:0118E70022DE
:0A193200E4F5E675E70275A89222BD
:0F190B001218E81218FB12191A1218D202193208
:0A192700E4FEEEC39F50030E80F8AB
:011931002293
:04183300AD07AC064B
:10183700E4FBFAC3EB9DEA9C500C7F501219270B6F
:06184700BB00010A80ED68
:01184D002278
:10000E00C2AF7B007A0079427D017FFF7E00121322
:04001E00DBD2AF2260
:03000B00021631A9
:10163100C0E0C0F0C083C082C0D075D008758A18E0
:10164100758CF4D209900014E004F090015CE0FC88
:10165100A3E0FDA3E0FEA3E02401FFE43EFEE43DA0
:10166100FDE43CFC90015C1211843031197810E6E4
:10167100D39404400EC2317600D2A243D21053D289
:10168100FD8003781006D0D0D082D083D0F0D0E096
:011691003226
:0F1817008E668F67900491EFF0E566A3F07F096E
:0D1826008F4EE4900003F090015A04F02270
:0F16F2001210BC900490F07B017A0479897D0876
:081701008B688A69896A8D6B0F
:101709007DFF7FFFAE6B156BEE6023AB68056AE565
:101719006AAA697002056914F91210A36DFB7A00AF
:10172900900D32936FFDEB900E3293FF80D6EFFE52
:02173900EDFFC2
:01173B00228B
:10169200E4FDFCED25E0FFEC33FE74432FF582748C
:1016A200033EF583E4F0A3F0747D2FF58274023ECD
:1016B200F583E4F0A3F074632FF58274013EF583A1
:1016C200E4F0A3F074162FF58274003EF583E4F083
:1016D200A37414F074C72FF58274033EF583E4F00B
:0F16E200A37419F00DBD00010CED64404C70A411
:0116F10022D6
:0411E7008E568F573A
:1011EB00D3E5579440E55694004003021300ED9469
:1011FB00FC4003021300ED700302130090027AE02F
:10120B00900489F0E53724F9601014603A1460619A
:10121B00240360030212A90212A990048A7402F03B
:10122B00AE56AF577C007D9812111DEF2408FBE4DE
:10123B003EFA90059AF0A3EBF0E490048DF0A374C2
:10124B0008F0F5370212D290048A7404F0AE56AF50
:10125B00577C007D9812111DAA06AB0790059AEAE0
:10126B00F0A3EBF0E490048DF0A304F07537098044
:10127B005690048A7402F0AE56AF577C007D9812DC
:10128B00111DEF2410FBE43EFA90059AF0A3EBF04E
:10129B00E490048DF0A37408F07537068029900450
:1012AB008A7402F0AE56AF577C007D9812111DAABE
:1012BB0006AB0790059AEAF0A3EBF0E490048DF0EF
:1012CB00A37408F075370790048BEAF0A3EBF0904A
:1012DB00059AEAF0A3EBF07B017A0479897D06127B
:1012EB001701AA06AB07900490EAF090048FEFF079
:0512FB007F0712182618
:0113000022CA
:080F32008F568B578A5889592C
:100F3A00E556D394405005ED94FC4003C22022EDBF
:100F4A007003C2202290027AE0900489F0E53724E7
:100F5A00FD6053147003020FEC147003021058243E
:100F6A0003600302109F90048A740FF0E55675F02F
:100F7A0098A485F066F567AB57AA58A9591210A329
:100F8A00FD7002C220E56690048BF0A3E567F0E4E9
:100F9A00A3F0A37408F0A37401F0A3ED1216F812DB
:100FAA0018177537032290048A740FF0E55675F006
:100FBA0098A4AEF02408F567E43EF566A3F0A3E52D
:100FCA0067F0E4A3F0A37408F0A37401F0AB57AA86
:100FDA0058A959F5827583001216F2121817753737
:100FEA00042290048A7406F0E55675F09CA485F0F4
:100FFA0066F567E566A3F0A3E567F0AB57AA58A9BB
:10100A00599000021210BCFF7E00D39414EE940093
:10101A007C00400A7D3212111D43060880057D645A
:10102A0012111D90048EEFF090048DEEF07B017A80
:10103A000479897D061217018E668F6790048FEFF7
:10104A00F0E566A3F07F0712182675370522C2203D
:10105A0090048A740FF0E55675F098A4AEF0241047
:10106A00F567E43EF566A3F0A3E567F0E4A3F0A311
:10107A007408F0A37401F0AB57AA58A95990000359
:10108A001216F28E668F67900491EFF0E566A3F070
:08109A007F09021826753702D8
:0110A200222B
:100AF60090048AE064026003020C8F90059CE02457
:100B0600FBFF90048BE06F6003020D31E53724F99B
:100B16007003020BE3147003020C0C240260030240
:100B26000D3190048CE0F556E55624FD60361460D0
:100B36005B147003020BBA14607C2405707A90056E
:100B46009AE0FEA3E0FF7C007D9812112FEF25E0CE
:100B5600FFEE33FE74632FF58274013EF583E4F0F5
:100B6600A3F0807990059AE0FEA3E0FF7C007D98D3
:100B760012112FEF25E0FFEE33FE74632FF582741A
:100B8600013EF583E4F0A37403F0805190059AE0EA
:100B9600FEA3E0FF7C007D9812112FEF25E0FFEE0B
:100BA60033FE74632FF58274013EF583E4F0A3747B
:100BB60002F080298002800090059AE0FEA3E0FF03
:100BC6007C007D9812112FEF25E0FFEE33FE746353
:100BD6002FF58274013EF583E4F0A304F090048CB3
:100BE600E0FB90059AE0FEA3E0FF7C007D981211E1
:100BF6002FEF25E0FFEE33FE74432FF58274033E9C
:100C0600F583E4020D0890048DE0F556E55624FEC2
:100C1600602A04704E90059AE0FEA3E0FF7C007DFA
:100C26009812112FEF25E0FFEE33FE747D2FF5822B
:100C360074023EF583E4F0A37403F02290059AE073
:100C4600FEA3E0FF7C007D9812112FEF25E0FFEE5A
:100C560033FE747D2FF58274023EF583E4F0A374AF
:100C660002F02290059AE0FEA3E0FF7C007D981238
:100C7600112FEF25E0FFEE33FE74632FF58274012A
:100C86003EF583E4F0A304F02290048AE064046055
:100C960003020D3190059CE024FBFF90048BE06F6E
:100CA6006003020D31E53764096003020D319004DB
:100CB6008CE0FEA3E0FDEEF557EDF558E55730E77D
:100CC600465478600D535707AE57AF587C007D32B7
:100CD6008008AE57AF587C007D6412112FAA06AB70
:100CE6000790059AE0FEA3E0FF7C007D9812112F85
:100CF600EF25E0FFEE33FE74162FF58274003EF505
:100D060083EAF0A3EBF02290059AE0FEA3E0FF7CD5
:100D1600007D9812112FEF25E0FFEE33FE74162F9B
:0B0D2600F58274003EF583E4F0A3F0BA
:010D3100229F
:10082B0053D9BF12190B121692D28ED28CD2AFD2D1
:10083B00A1D298D2A243D201D216E4F54A7F3C7ED4
:10084B0000121833054AE54AC394FF40F07B007A47
:10085B000079427D017F017E001213DB85424A7BCA
:10086B00007A0079427D037F357E021213DB900202
:10087B007AE542F0900013E543F0900015E544F063
:10088B007B017A0179177D407F007E041213DB9088
:10089B000013E0B4FF04D2158002C215753AFA7545
:1008AB003BB9854A3C753DFE753EEF753F11754072
:1008BB0080121783754D0A752A3275D840E4F5F905
:1008CB00F5FA75FDFF75FEFF754E0743D960900174
:1008DB005BF09001E304F0900014E0C39406401F1A
:1008EB00303B0DD23CE4900003F0C23BC29C800A2B
:1008FB00C23C9000037401F0D29CE4900014F030E1
:10090B003C53C23C90059CE0FD2488F582E4340402
:10091B00F583E0FE74872DF582E43404F583E0FD66
:10092B00EDFF900487EEF0A3EFF07B017A04798959
:10093B0090059CE024FEFD121701900487E0B5069C
:10094B0014A3E0B5070F120AF6D29C90015C1211AA
:10095B009000000000900003E0B4011390015AE0F6
:10096B00B4010CE4900003F090015AF012189F3080
:10097B003208C23212008643D2102009030208E269
:10098B00C20975FEFFD5460375460AD54DEC754D6C
:10099B000A303405C234121783D2A37F02121927EF
:1009AB0020A321203329D23330A2FD753AFA753BAF
:1009BB00B9854A3C753DFEE4F53E753F01F54012A5
:1009CB00193C800BC233303504D2A38002C2A3AFD3
:1009DB002A152AEF6003020ADB752A322001031263
:1009EB00000EA21AB3921A301A78E553702C755375
:1009FB00040552E552D3943F4003E4F552E552C34C
:100A0B009440501674172552F582E43401F583E0B7
:100A1B00600280060552055080E320200D1553AF70
:100A2B00527E007D011211E78038301105C211751D
:100A3B003702E53764066017E53764076011E53761
:100A4B006408600BE53764096005E537B40A037584
:100A5B00370290053EE0FF7B017A0579447D011258
:100A6B000F3230064030A13DAF4B154BEF70367552
:100A7B004B0AF547E547C39539501E74032547F5D7
:100A8B0082E43403F583E0FF74892547F582E4346F
:100A9B0004F583EFF0054780DB12189FAF3815384C
:100AAB00EF7002C20630360BC236D2A243D210D23E
:100ABB00AF8002D23630370BAF4F154FEF7011C2EC
:100ACB0037800D303506C2A3C2358004D2A3D23590
:100ADB00203703020985E52AC394195007C2A3C224
:0B0AEB0035020985D2A3D2350209852F
:0C15BE008E608F618D628B638A6489658A
:1015CA00C3E5609420505B1218847FA0120026EFB6
:1015DA004E60028015E560FF120026EF4E60028021
:1015EA0009AF61120026EF4E60051218B98033E484
:1015FA00F566E566C39562501DAB63AA64A9658565
:10160A0066827583001210BCFF120026EF4E60023C
:10161A008010056680DC1218B97FC8121927E4FE0B
:06162A00FF227EFF7FFF9E
:011630002297
:0C13DB008E608F618D628B638A6489656F
:1013E700C3E560942040030214841218847FA0127E
:1013F7000026EF4E60028023E560FF120026EF4EC5
:1014070060028017AF61120026EF4E6002800C1257
:1014170018847FA1120026EF4E60051218B9805D6F
:10142700E56264016040E4F566E56214FFE566C3C2
:101437009F501A12173CAB63AA64A965856682752B
:101447008300EF1210FB12184E056680DC12173C62
:10145700AB63E5627C002565F9EC3564FA90FFFF24
:10146700EF1210FB800D12173CAB63AA64A965EF5E
:101477001210E91218691218B9E4FEFF227EFF7FE5
:01148700FF65
:011488002241
:100026008F28E4FFE52820E704C2868002D286E412
:10003600FD0DBD50FCD287E4FD0DBDA0FCC287E5D9
:100046002825E0F5280FBF08DBE4FD0DBD50FCD2E6
:1000560086E4FD0DBD50FCD287E4FD0DBD50FC20AD
:100066008606C287E4FEFF22E4FD0DBD50FCC28772
:040076007EFF7FFF8B
:01007A002263
:10173C00D286E4FFC287E4FE0EBE50FCD287308610
:10174C000543290180035329FEE4FE0EBE50FCE53F
:10175C002925E0F5290FBF07DBC287E4FE0EBE503A
:10176C00FCD28730860543290180035329FEE4FE11
:06177C000EBE50FCAF2977
:011782002244
:10184E00C287E4FF0FBF50FCC286E4FF0FBF50FCFF
:0A185E00D287E4FF0FBFA0FCC28791
:01186800225D
:10186900C287E4FF0FBF50FCD286E4FF0FBF50FCD4
:0A187900D287E4FF0FBFA0FCC28776
:011883002242
:10188400D286E4FF0FBF50FCD287E4FF0FBFA0FC59
:0A189400C286E4FF0FBFA0FCC2876C
:01189E002227
:1018B900C286E4FF0FBF50FCD287E4FF0FBFA0FC34
:0818C900D286E4FF0FBFA0FC72
:0118D10022F4
:03002300021301C4
:10130100C0E0C0F0C083C082C0D075D000C000C0B2
:1013110001C002C003C004C005C006C00730985D0B
:10132100C298900014E4F0203B1A90027AE0B5993B
:1013310013D23B752D04752E8990059CE4F0900322
:10134100C37428F0303B73852E82852D83E599F097
:1013510090059CE004F09003C3E02488F582E43416
:1013610004FEE582B52E0CEEB52D08D23CC29CC21E
:101371003B8047052EE52E7002052D803D30993AC0
:10138100C299900014E4F07489254EF582E4340486
:10139100FEC3E52E9582E52D9E5016052EE52E7095
:1013A10002052DF582852D83E0A2D0929BF59980CF
:1013B10009120003D2A1D29CC23B900096E4F0D066
:1013C10007D006D005D004D003D002D001D000D080
:0A13D100D0D082D083D0F0D0E032FB
:03008300021489DB
:10148900C0E0C0F0C083C082C0D075D000C000C029
:0D14990001C002C003C004C005C006C007AA
:1014A600E5D230E03853D27EAFD3203112EF64FA62
:1014B6006008EF64F56003BFFC05D23175482F3034
:1014C6003114A848A6077436B54809D23253D2EF6C
:1014D600C23180020548E5D220E0CA8025E5D23037
:1014E600E12053D2FDE54CC394415009054CA84C6C
:1014F600E6F5D3800D120003D2A243D210754F0633
:08150600D23778107600C236DE
:10150E00D007D006D005D004D003D002D001D00031
:0B151E00D0D0D082D083D0F0D0E032DB
:06000300E4FF0FBF0AFC40
:0100090022D4
:10178300754C3AA84CE6FF64FA600AEF64F560050D
:10179300EF64FC701F53D2EFC2A2E4FFFE743A2E33
:1017A300F8E62FFF0EBE07F56307FFEF04F541A828
:0417B3004CE6F5D338
:0117B700220F
:09193C007406254DF54DD234224C
:10189F00752D04752E89C29CC298C2A1852E828592
:0918AF002D83E0A2D0929BF59973
:0118B800220D
:0919450074062546F546D23D2248
:10008600E4F557F556742F2556F8E62557F5570526
:1000960056E556B408EFE557600302082A754F0681
:1000A600D237E52F64FA6003020753E531654A60EB
:1000B600030204A1E53064B960030204A185325746
:1000C600E5571211C1020D8F03DB9C0180BA01E1D5
:1000D600DD01BEDE01A6DF011CFA00EDFB0198FC86
:1000E600019CFD0000082A753DF9E5347004E533EE
:1000F600601CE533FE7C00E42534FFEC3EFE7B000D
:100106007A0079427D011213DB85424080037540F7
:10011600B9852F3A8055753DF9853542E533FE7C24
:1001260000E42534FFEC3EFE7B007A0079427D0137
:100136001215BEE533FE7C00E42534FFEC3EFE7B63
:10014600007A00792F7D011213DBEF4E70E5E5335F
:10015600FE7C00E42534FFEC3EFE7B007A0079420B
:100166007D011213DB854240753AFA85303B8531B5
:100176003C85333E85343F020827852F3A85303B40
:1001860085313C753EF0853540753DFE753F010273
:10019600082743EF1022E5346003D20122C2012270
:1001A600852F3A85303B85313C85333E85343F8506
:1001B6003540753DDE020827753AFC7B007A0079EA
:1001C6003B8B5B8A5C895DE533FE7C00E42534FF6E
:1001D600EC3EFE7D061213DB020827D202E533FE53
:1001E6007C00E42534FFEC3E900542F0A3EFF08559
:1001F6002F3A85303B85313C85333E85343F853506
:1002060040753DDC02082730200302082AE4F55633
:1002160074172556F582E43401F583E0654A6007D4
:100226000556E556B440E9E556C394404003020836
:100236002A90053EE556F0852F3A85303B85313CC0
:10024600753D9B85333E85343FE5337048900544C4
:10025600F0E55625E02443F582E43403F583E4F023
:10026600A3F0900545F0E55625E0247DF582E434BB
:1002760002F583E4F0A3F0E55625E02463F582E475
:100286003401F583E4F0A3F0900546F0A304F0856D
:10029600354002067D9005447401F0E55625E024BC
:1002A60043F582E43403F583E4F0A304F0E5335424
:1002B600F0FFC4540FF55724FE600F146014240297
:1002C60070189005477405F080169005477404F081
:1002D600800E9005477403F080069005477402F07F
:1002E600E55625E02463F582E43401F583E4F0A3C2
:1002F600F0E533540FF55724FE602214603A2402C9
:1003060070509005457404F0E55625E0247DF5828D
:10031600E43402F583E4F0A37404F0804E900545BE
:100326007402F0E55625E0247DF582E43402F58377
:10033600E4F0A37402F080339005457401F0E556AD
:1003460025E0247DF582E43402F583E4F0A304F08D
:1003560080199005457405F0E55625E0247DF58263
:10036600E43402F583E4F0A37405F053347FE534F6
:10037600D3941E401B900546741EF0E55625E024D6
:10038600C7F582E43403F583E4F0A3741EF0803CE1
:10039600E534C3941090054650187410F0E55625C0
:1003A600E024C7F582E43403F583E4F0A37410F087
:1003B600801AE534F0900549E0FFE55625E024C7AC
:1003C600F582E43403F583E4F0A3EFF0900447E00C
:1003D600F54002067DE4F55674172556F582E43499
:1003E60001F583E0654A60070556E556B440E9E540
:1003F60056C39440400302082A852F3A85303B8530
:10040600313C753D9BE55625E02443F582E43403F3
:10041600F583E0FEA3E04E7004F53E8059E55625CF
:10042600E0247DF582E43402F583E0FEA3E0FFEEEE
:10043600701FEF14600C14600E146010240370110A
:10044600800F433E01800D433E028008433E0380F9
:1004560003E4F53EE55625E02463F582E43401F530
:1004660083A3E0C4F8540FC868FF0582D58202153D
:10047600831582EF423EE55625E024C7F582E43433
:1004860003F583A3E0F53FE55625E02416F582E45F
:100496003400F583A3E0F540020827E53064B86030
:1004A6000302082AE532648F6003020685302003C2
:1004B60002082AF55674172556F582E43401F583A9
:1004C600E0653160070556E556B440E9E556C39444
:1004D60040400302082A90053EE556F0852F3A85EE
:1004E600303B85313C753D9B85333E85343FE53356
:1004F6007048900544F0E55625E02443F582E4343F
:1005060003F583E4F0A3F0900545F0E55625E024D5
:100516007DF582E43402F583E4F0A3F0E55625E0A8
:100526002463F582E43401F583E4F0A3F0900546F4
:10053600F0A304F085354002067D9005447401F071
:10054600E55625E02443F582E43403F583E4F0A37D
:1005560004F0E53354F0FFC4540FF55724FE600F42
:10056600146014240270189005477405F0801690E4
:1005760005477404F0800E9005477403F0800690DA
:1005860005477402F0E55625E02463F582E434015C
:10059600F583E4F0A3F0E533540FF55724FE60220B
:1005A60014603A240270509005457404F0E556250F
:1005B600E0247DF582E43402F583E4F0A37404F0CC
:1005C600804E9005457402F0E55625E0247DF582BF
:1005D600E43402F583E4F0A37402F0803390054519
:1005E6007401F0E55625E0247DF582E43402F583B6
:1005F600E4F0A304F080199005457405F0E556254E
:10060600E0247DF582E43402F583E4F0A37405F07A
:1006160053347FE534D3941E401B900546741EF078
:10062600E55625E024C7F582E43403F583E4F0A318
:10063600741EF0803CE534C394109005465018743F
:1006460010F0E55625E024C7F582E43403F583E48B
:10065600F0A37410F0801AE534F0900549E0FFE548
:100666005625E024C7F582E43403F583E4F0A3EFCE
:10067600F0900447E0F54012193CD211D22022E551
:1006860032649C600302082AF55674172556F582D3
:10069600E43401F583E0654A60070556E556B44043
:1006A600E9E556C39440400302082A852F3A85306F
:1006B6003B85313C753D9BE55625E02443F582E4B8
:1006C6003403F583E0FEA3E04E7004F53E8059E561
:1006D6005625E0247DF582E43402F583E0FEA3E0AE
:1006E600FFEE701FEF14600C14600E1460102403EC
:1006F6007011800F433E01800D433E028008433E49
:10070600038003E4F53EE55625E02463F582E434F0
:1007160001F583A3E0C4F8540FC868FF0582D582AB
:100726000215831582EF423EE55625E024C7F58281
:10073600E43403F583A3E0F53FE55625E02416F5FA
:1007460082E43400F583A3E0F540020827E52FB4E0
:10075600F509E53264FE700302082AE52F64FC60A1
:100766000302082A20020302082AF55B755C00755D
:100776005D30900542E0FEA3E0FFF556E556C45411
:100786000FC454F0FDC3E5569D2405F557C39410D8
:10079600500AAB5BAA5CA95D7D068059E55724F13A
:1007A600F556C374069556F557900542E0FEA3E04C
:1007B600FFAB5BAA5CA95DAD571215BE900542E082
:1007C600FEA3E0FF7B007A00792F7D011213DBEF99
:1007D6004E70E9E557FD7C00900543E02DFF90053E
:1007E60042E03CFEED255DF55DEC355CF55CAB5B12
:1007F600FAA95DAD561215BE753AFA753BB9854A2A
:100806003C753DDC900542E0FCA3E0FDECF53EAF17
:10081600058F3FE4F540E02406F0900542E0340001
:04082600F012193C77
:01082A0022AB
:1017E800754B0A753802D206E4F54774892547F522
:1017F80082E43404F583E0FF74032547F582E4347A
:0F18080003F583EFF00547E547B407DF02194505
:10153E0002082BE493A3F8E493A34003F68001F290
:10154E0008DFF48029E493A3F85407240CC8C333AE
:10155E00C4540F4420C8834004F456800146F6DF7D
:10156E00E4800B01020408102040809017B8E47E3E
:10157E00019360BCA3FF543F30E509541FFEE49372
:10158E00A360010ECF54C025E060A840B8E493A339
:10159E00FAE493A3F8E493A3C8C582C8CAC583CA64
:1015AE00F0A3C8C582C8CAC583CADFE9DEE780BE1C
:0117E7000001
:1010A300BB010689828A83E0225002E722BBFE024B
:0910B300E32289828A83E493227E
:1010BC00BB010CE58229F582E5833AF583E02250E9
:1010CC0006E92582F8E622BBFE06E92582F8E22233
:0D10DC00E58229F582E5833AF583E493224D
:1010E900BB010689828A83F0225002F722BBFE01E6
:0210F900F322E0
:1010FB00F8BB010DE58229F582E5833AF583E8F02B
:10110B00225006E92582C8F622BBFE05E92582C8D6
:02111B00F222BE
:10111D00EF8DF0A4A8F0CF8CF0A428CE8DF0A42EE6
:02112D00FE22A0
:10112F00BC000BBE0029EF8DF084FFADF022E4CCA4
:10113F00F875F008EF2FFFEE33FEEC33FCEE9DEC6D
:10114F00984005FCEE9DFE0FD5F0E9E4CEFD22EDB3
:10115F00F8F5F0EE8420D21CFEADF075F008EF2FFD
:10116F00FFED33FD4007985006D5F0F222C398FDEE
:05117F000FD5F0EA228B
:0C118400ECF0A3EDF0A3EEF0A3EFF022DE
:10119000A8828583F0D083D0821211A71211A712E2
:1011A00011A71211A7E473E493A3C583C5F0C58307
:1011B000C8C582C8F0A3C583C5F0C583C8C582C8A9
:0111C000220C
:1011C100D083D082F8E4937012740193700DA3A3BD
:1011D10093F8740193F5828883E4737402936860D1
:0611E100EFA3A3A380DFD1
:00000001FF
